S00C000065782E352E73726563D8
S11300000C9457010C947F010C947F010C947F0194
S11300100C947F010C947F010C947F010C947F015C
S11300200C947F010C947F010C947F010C947F014C
S11300300C947F010C947F010C947F010C947F013C
S11300400C947F010C947F010C947F010C947F012C
S11300500C947F010C947F010C947F010C947F011C
S11300600C947F010C947F010C947F010C947F010C
S11300700C947F010C947F010C947F010C947F01FC
S11300800C947F010C947F010C947F010C947F01EC
S11300900C947F010C947F010C947F010C947F01DC
S11300A00C947F010C947F010C947F010C947F01CC
S11300B00C947F010C947F010C947F010C947F01BC
S11300C00C947F010C947F010C947F010C947F01AC
S11300D00C947F010C947F010C947F010C947F019C
S11300E00C947F010C947F010C947F010C947F018C
S11300F00C947F010C947F010C947F010C947F017C
S11301000C947F010C947F010C947F010C947F016B
S11301100C947F010C947F010C947F010C947F015B
S11301200C947F010C947F010C947F010C947F014B
S11301300C947F010C947F010C947F010C94560461
S11301400C947F010C947F010C947F010C947F012B
S11301500C947F010C947F010C947F010C947F011B
S11301600C947F010C947F010C947F010C947F010B
S11301700C947F010C947F010C947F010C947F01FB
S11301800C947F010C947F010C947F010C947F01EB
S11301900C947F010C947F010C947F010C947F01DB
S11301A00C947F010C947F010C947F010C947F01CB
S11301B00C947F010C947F010C947F010C947F01BB
S11301C00C947F010C947F010C947F010C947F01AB
S11301D00C947F010C947F010C947F010C947F019B
S11301E00C947F010C947F010C947F010C947F018B
S11301F00C947F010C947F010C947F016902950398
S1130200950395039503950395039503950395032A
S11302109503950395039503950395030E039503A1
S11302209503950395039503950395034B0250029B
S113023055025A025F0264026E02730278027D0262
S1130240820287028C02910296029B02A002A502FE
S1130250AA02AF02B402B902BE02C302C802CD02AE
S1130260D202D702DC02E102E602EB02F002F5025E
S1130270FA02FF0204030903130318031D032203F4
S113028027032C03310336033B03400345034A038E
S11302904F03540359035E03630368036D0372033E
S11302A077037C03810386038B039003A504112445
S11302B01FBECFEFCDBFD7E2DEBF10E2A0E0B0E2B9
S11302C0E6E8F9E002C005900D92A430B107D9F731
S11302D020E2A4E0B0E201C01D92A530B207E1F72C
S11302E011E0C7E5D1E004C02197FE010E94AC04EF
S11302F0C635D107C9F70E944D040C94C1040C946F
S113030000008FEF8093060621E080E8882351F0F7
S1130310922F962311F08093050690E0959587958A
S1130320220FF4CF0895CF93DF93C6E2D6E021E005
S113033028830E94810186E08A95F1F700C082E05B
S11303408093250696E09A95F1F700C0888386E0AD
S11303508A95F1F700C0DF91CF9108950F931F9311
S1130360CF93DF93EC01162F042F8FEF80930006B9
S113037083E0809320068FE493EC0197F1F700C0AB
S1130380000068E3CE010E94930183EC99E0019799
S1130390F1F700C0000068E3CE010E94930199E4E4
S11303A09A95F1F7000068E3CE010E94930181E27F
S11303B08A95F1F7000068E3CE010E94930191E26F
S11303C09A95F1F7000068E0CE010E94930181E262
S11303D08A95F1F7000061E0CE010E94930187EE57
S11303E093E00197F1F700C00000602FCE010E9456
S11303F0930191E29A95F1F7000062E0CE010E9428
S1130400930187EE93E00197F1F700C00000612F9C
S1130410CE010E94930191E29A95F1F70000DF91D9
S1130420CF911F910F910895CF93DF93C5E2D6E04A
S113043021E028830E94810186E08A95F1F700C0BB
S113044082E0888396E09A95F1F700C080932606AF
S113045086E08A95F1F700C0DF91CF910895FF926D
S11304600F931F93CF93DF938C01EB01F12CFE01CB
S1130470EF0DF11D6081662309F45CC1862F90E0C5
S1130480FC01E85AF109E835F10508F04EC1E250E3
S1130490FF4F0C94AC0461E4C8010E94140248C1EB
S11304A060EAC8010E94140243C162E4C8010E94C8
S11304B014023EC161EAC8010E94140239C160EE0F
S11304C0C8010E94140234C165E4C8010E941402E8
S11304D02FC162EAC8010E9414022AC163EAC8015A
S11304E00E94140225C164EAC8010E94140220C1BA
S11304F065EAC8010E9414021BC166EAC8010E9491
S1130500140216C16BE4C8010E94140211C167EA07
S1130510C8010E9414020CC16DE4C8010E941402B7
S113052007C168E4C8010E94140202C16FE4C80153
S11305300E941402FDC068EAC8010E941402F8C0B7
S113054060E5C8010E941402F3C063E4C8010E947C
S11305501402EEC064E5C8010E941402E9C069EA0D
S1130560C8010E941402E4C06AEAC8010E9414028D
S1130570DFC068E5C8010E941402DAC061EEC80158
S11305800E941402D5C06BEAC8010E941402D0C0B4
S11305906CEAC8010E941402CBC062EEC8010E943A
S11305A01402C6C06DEAC8010E941402C1C06EEAFA
S11305B0C8010E941402BCC062E6C8010E94140271
S11305C0B7C06FEAC8010E941402B2C060EBC80150
S11305D00E941402ADC061EBC8010E941402A8C0BD
S11305E061E6C8010E941402A3C062EBC8010E9424
S11305F014029EC063EBC8010E94140299C064EB0C
S1130600C8010E94140294C063EEC8010E9414023F
S11306108FC065E6C8010E9414028AC065EBC80158
S11306200E94140285C066EBC8010E94140280C0B7
S113063067EBC8010E9414027BC068EBC8010E94EA
S1130640140276C069EBC8010E94140271C06AEBFF
S1130650C8010E9414026CC06BEBC8010E94140212
S113066067C06CEBC8010E94140262C06DEBC80144
S11306700E9414025DC06FE6C8010E94140258C0B3
S11306806EEBC8010E94140253C060E7C8010E94C7
S113069014024EC063E6C8010E94140249C06FEB05
S11306A0C8010E94140244C069E7C8010E941402F0
S11306B03FC064EEC8010E9414023AC068E7C80152
S11306C00E94140235C065EEC8010E94140230C0B5
S11306D060ECC8010E9414022BC061ECC8010E94A6
S11306E0140226C066EEC8010E94140221C062EC06
S11306F0C8010E9414021CC063ECC8010E941402C9
S113070017C064ECC8010E94140212C065ECC80151
S11307100E9414020DC066ECC8010E94140208C0B5
S113072067ECC8010E94140203C0C8010E941402AD
S1130730F3949DCEDF91CF911F910F91FF90089577
S1130740413049F42FEF260F203128F4622F6068DE
S11307500E9493010EC0423049F42FEF260F20313E
S113076028F4615C60680E94930103C060E80E9401
S113077093018AE18A95F1F700C00895EF92FF9200
S11307800F931F93CF93DF9300D01F92CDB7DEB7A3
S11307908C0119821A821B8220E030E050E0611142
S11307A00CC081E0611101C080E0811120C081E0B2
S11307B0511101C080E081111AC0E1E0F0E0EC0FBA
S11307C0FD1FE20FF31F8DEC689F812D1124869588
S11307D086958695482F440F942F990F990F940F5F
S11307E0691B6083682F5F5F2F5F3F4FD8CF68948A
S11307F0EE24E1F8F12CFF207CF0E1E0F0E0EC0FD6
S1130800FD1FEE0DFF1D6081605DC8010E94140292
S113081081E0E81AF108EFCF2396CDBFDEBFDF9168
S1130820CF911F910F91FF90EF900895019749F494
S11308306F3F7F4F31F446E06DE084E090E20E9428
S1130840AE01089581E0809360062FE33CE9209394
S113085026093093270927E833E1209328093093A8
S1130860290993E1909301098093000908958FEF7A
S11308709FEF809366099093670988E680938001CF
S113088088EC8093430980E18093410983E080935D
S1130890070981E08093400908950E9422040E9480
S11308A0370487E08093A2007894FFCF1F920F92C1
S11308B00FB60F9211242F933F934F935F936F932F
S11308C07F938F939F93AF93BF93EF93FF9341E0F5
S11308D061E084E090E20E94A00383EF91E001973D
S11308E0F1F700C00000209168093091690936953C
S11308F027953695279536952795ABE7B4E10E9461
S1130900B20496958795682F84E090E20E94BE0316
S113091083EF91E00197F1F700C0000060E070E21E
S113092084E090E20E942F02FF91EF91BF91AF917A
S11309309F918F917F916F915F914F913F912F91F3
S11309400F900FBE0F901F9018956FEF7FEF81E00F
S113095090E00E9416040895EE0FFF1F0590F49195
S1130960E02D0994A29FB001B39FC001A39F700D15
S1130970811D1124911DB29F700D811D1124911DA3
S10909800895F894FFCF76
S1070986452D3100C6
S9030000FC
