S00D000054696D65722E7372656316
S11300000C94FF000C941C010C941C010C941C0116
S11300100C941C010C941C010C941C010C941C01E8
S11300200C941C010C941C010C941C010C941C01D8
S11300300C941C010C941C010C941C010C941C01C8
S11300400C941C010C941C010C941C010C941C01B8
S11300500C941C010C941C010C941C010C941C01A8
S11300600C941C010C941C010C941C010C941C0198
S11300700C941C010C941C010C941C010C941C0188
S11300800C941C010C941C010C941C010C941C0178
S11300900C941C010C941C010C941C010C941C0168
S11300A00C941C010C941C010C941C010C941C0158
S11300B00C941C010C941C010C941C010C941C0148
S11300C00C941C010C941C010C941C010C941C0138
S11300D00C941C010C941C010C941C010C941C0128
S11300E00C941C010C941C010C941C010C941C0118
S11300F00C941C010C941C010C941C010C941C0108
S11301000C941C010C941C010C941C010C941C01F7
S11301100C941C010C941C010C941C010C941C01E7
S11301200C941C010C941C010C941C010C941C01D7
S11301300C941C010C941C010C941C010C9483025F
S11301400C941C010C941C010C941C010C941C01B7
S11301500C941C010C941C010C941C010C941C01A7
S11301600C941C010C941C010C941C010C941C0197
S11301700C941C010C941C010C941C010C941C0187
S11301800C941C010C941C010C941C010C941C0177
S11301900C941C010C941C010C941C010C941C0167
S11301A00C941C010C941C010C941C010C941C0157
S11301B00C941C010C941C010C941C010C941C0147
S11301C00C941C010C941C010C941C010C941C0137
S11301D00C941C010C941C010C941C010C941C0127
S11301E00C941C010C941C010C941C010C941C0117
S11301F00C941C010C941C010C941C01C9021124C4
S11302001FBECFEFCDBFD7E2DEBF20E2A0E0B0E259
S113021001C01D92A130B207E1F710E0CFEFD0E0AA
S113022004C02197FE010E94F202CE3FD107C9F714
S11302300E947A020C94F8020C9400008FEF8093D1
S1130240060621E080E8882351F0922F962311F0CE
S11302508093050690E095958795220FF4CF089535
S1130260CF93DF93C6E2D6E021E028830E941E01EB
S113027086E08A95F1F700C082E08093250696E037
S11302809A95F1F700C0888386E08A95F1F700C05B
S1130290DF91CF9108950F931F93CF93DF93EC01D8
S11302A0162F042F8FEF8093000683E0809320069F
S11302B08FE493EC0197F1F700C0000068E3CE01EE
S11302C00E94300183EC99E00197F1F700C000002F
S11302D068E3CE010E94300199E49A95F1F7000099
S11302E068E3CE010E94300181E28A95F1F70000B3
S11302F068E3CE010E94300191E29A95F1F7000083
S113030068E0CE010E94300181E28A95F1F7000095
S113031061E0CE010E94300187EE93E00197F1F78E
S113032000C00000602FCE010E94300191E29A9536
S1130330F1F7000062E0CE010E94300187EE93E005
S11303400197F1F700C00000612FCE010E94300137
S113035091E29A95F1F70000DF91CF911F910F91EF
S11303600895CF93DF93C5E2D6E021E028830E946D
S11303701E0186E08A95F1F700C082E0888396E04A
S11303809A95F1F700C08093260686E08A95F1F7E6
S113039000C0DF91CF910895413049F42FEF260F2B
S11303A0203128F4622F60680E9430010EC0423070
S11303B049F42FEF260F203128F4615C60680E9415
S11303C0300103C060E80E9430018AE18A95F1F7A8
S11303D000C00895DF92EF92FF920F931F93CF9383
S11303E0DF93CDB7DEB72A97CDBFDEBF7C01CB014B
S11303F0BA01FE0131962AE0DF011D922A95E9F740
S113040000E010E0D12C611571058105910579F4A6
S113041021E0611571058105910509F420E02111A0
S11304201BC021E0D11001C020E0211115C02AE039
S113043030E040E050E00E94D002E1E0F0E0EC0F58
S1130440FD1FE00FF11F6083622F732F842F952F00
S1130450D3940F5F1F4FD7CF09E010E0112374F03E
S1130460E1E0F0E0EC0FFD1FE00FF11F6081605D43
S1130470C7010E94B10101501109F0CF2A96CDBFE6
S1130480DEBFDF91CF911F910F91FF90EF90DF902E
S11304900895019749F46F3F7F4F31F446E06DE0D2
S11304A080E090E20E944B01089588E0809360060A
S11304B08FE493EC809328099093290981E8809331
S11304C0010982E08093000908958FEF9FEF8093E4
S11304D06609909367098BE68093800188EA80938C
S11304E0430980E18093410983E080930709809365
S11304F0400908950E9455020E94650287E0809396
S1130500A2007894FFCF1F920F920FB60F9211247E
S11305102F933F934F935F936F937F938F939F9307
S1130520AF93BF93EF93FF9341E061E080E090E2EB
S11305300E94CC0183EF91E00197F1F700C0000025
S1130540209168093091690940E050E060E271EA65
S113055087E090E00E94D002BA01A90180E090E215
S11305600E94EA0183EF91E00197F1F700C00000D7
S1130570FF91EF91BF91AF919F918F917F916F9177
S11305805F914F913F912F910F900FBE0F901F904D
S113059018956FEF7FEF81E090E00E944902089583
S11305A0A1E21A2EAA1BBB1BFD010DC0AA1FBB1F73
S11305B0EE1FFF1FA217B307E407F50720F0A21BE5
S11305C0B30BE40BF50B661F771F881F991F1A9452
S11305D069F760957095809590959B01AC01BD017C
S11305E0CF010895EE0FFF1F0590F491E02D0994BB
S10705F0F894FFCFA9
S9030000FC
