:100000000C94FF000C941C010C941C010C941C011A
:100010000C941C010C941C010C941C010C941C01EC
:100020000C941C010C941C010C941C010C941C01DC
:100030000C941C010C941C010C941C010C941C01CC
:100040000C941C010C941C010C941C010C941C01BC
:100050000C941C010C941C010C941C010C941C01AC
:100060000C941C010C941C010C941C010C941C019C
:100070000C941C010C941C010C941C010C941C018C
:100080000C941C010C941C010C941C010C941C017C
:100090000C941C010C941C010C941C010C941C016C
:1000A0000C941C010C941C010C941C010C941C015C
:1000B0000C941C010C941C010C941C010C941C014C
:1000C0000C941C010C941C010C941C010C941C013C
:1000D0000C941C010C941C010C941C010C941C012C
:1000E0000C941C010C941C010C941C010C941C011C
:1000F0000C941C010C941C010C941C010C941C010C
:100100000C941C010C941C010C941C010C941C01FB
:100110000C941C010C941C010C941C010C941C01EB
:100120000C941C010C941C010C941C010C941C01DB
:100130000C941C010C941C010C941C010C941C01CB
:100140000C941C010C941C010C941C010C941C01BB
:100150000C941C010C941C010C941C010C941C01AB
:100160000C941C010C941C010C941C010C941C019B
:100170000C941C010C941C010C941C010C941C018B
:100180000C941C010C941C010C941C010C941C017B
:100190000C941C010C941C010C941C010C941C016B
:1001A0000C941C010C941C010C941C010C941C015B
:1001B0000C941C010C941C010C941C010C941C014B
:1001C0000C941C010C941C010C941C010C941C013B
:1001D0000C941C010C941C010C941C010C941C012B
:1001E0000C941C010C941C010C941C010C941C011B
:1001F0000C941C010C941C010C941C01A2021124EF
:100200001FBECFEFCDBFD7E2DEBF20E2A0E0B0E25D
:1002100001C01D92A130B207E1F710E0CFEFD0E0AE
:1002200004C02197FE010E94A902CE3FD107C9F761
:100230000E9485020C94BE020C9400008FEF809304
:10024000060621E080E8882351F0922F962311F0D2
:100250008093050690E095958795220FF4CF089539
:10026000CF93DF93C6E2D6E021E028830E941E01EF
:1002700086E08A95F1F700C082E08093250696E03B
:100280009A95F1F700C0888386E08A95F1F700C05F
:10029000DF91CF9108950F931F93CF93DF93EC01DC
:1002A000162F042F8FEF8093000683E080932006A3
:1002B0008FE493EC0197F1F700C0000068E3CE01F2
:1002C0000E94300183EC99E00197F1F700C0000033
:1002D00068E3CE010E94300199E49A95F1F700009D
:1002E00068E3CE010E94300181E28A95F1F70000B7
:1002F00068E3CE010E94300191E29A95F1F7000087
:1003000068E0CE010E94300181E28A95F1F7000099
:1003100061E0CE010E94300187EE93E00197F1F792
:1003200000C00000602FCE010E94300191E29A953A
:10033000F1F7000062E0CE010E94300187EE93E009
:100340000197F1F700C00000612FCE010E9430013B
:1003500091E29A95F1F70000DF91CF911F910F91F3
:100360000895CF93DF93C5E2D6E021E028830E9471
:100370001E0186E08A95F1F700C082E0888396E04E
:100380009A95F1F700C08093260686E08A95F1F7EA
:1003900000C0DF91CF910895413049F42FEF260F2F
:1003A000203128F4622F60680E9430010EC0423074
:1003B00049F42FEF260F203128F4615C60680E9419
:1003C000300103C060E80E9430018AE18A95F1F7AC
:1003D00000C00895DF92EF92FF920F931F93CF9387
:1003E000DF93CDB7DEB72597CDBFDEBF8C01AB0164
:1003F000FE01319685E0DF011D928A95E9F7E12C37
:10040000F12CD12C4115510569F481E041155105BC
:1004100009F480E0811135C081E0D11001C080E095
:1004200081112FC09A01ADECBCEC0E94AF029695F1
:10043000879596958795969587959C01220F331FF2
:10044000880F991F880F991F880F991F820F931F7C
:100450009A01281B390BE1E0F0E0EC0FFD1FEE0DD7
:10046000FF1D20839A010E94AF02AC01569547956B
:100470005695479556954795D3943FEFE31AF30A5F
:10048000C1CF6894EE24E2F8F12CFF207CF0E1E08B
:10049000F0E0EC0FFD1FEE0DFF1D6081605DC801F7
:1004A0000E94B10181E0E81AF108EFCF2596CDBF97
:1004B000DEBFDF91CF911F910F91FF90EF90DF9002
:1004C0000895019749F46F3F7F4F31F446E06DE0A6
:1004D00080E090E20E944B0108958FEF90E08093BE
:1004E0002609909327098AE58093800188E180930B
:1004F0003206809333068FE08093880188E68093EC
:10050000030981E08093000908950E946D0241E093
:1005100061E080E090E20E94CC0183EF91E00197DE
:10052000F1F700C00000609120097091210980E07E
:1005300090E20E94EA0187EA91E60197F1F700C094
:100540000000E5CF6FEF7FEF81E090E00E94610255
:100550000895EE0FFF1F0590F491E02D0994A29FDE
:10056000B001B39FC001A39F700D811D1124911D87
:10057000B29F700D811D1124911D0895F894FFCF35
:00000001FF
